{
  "_format": "hh-sol-artifact-1",
  "contractName": "MockUSDC",
  "sourceName": "contracts/MockUSDC.sol",
  "abi": [
    {
      "inputs": [],
      "stateMutability": "nonpayable",
      "type": "constructor"
    },
    {
      "inputs": [
        {
          "internalType": "address",
          "name": "spender",
          "type": "address"
        },
        {
          "internalType": "uint256",
          "name": "allowance",
          "type": "uint256"
        },
        {
          "internalType": "uint256",
          "name": "needed",
          "type": "uint256"
        }
      ],
      "name": "ERC20InsufficientAllowance",
      "type": "error"
    },
    {
      "inputs": [
        {
          "internalType": "address",
          "name": "sender",
          "type": "address"
        },
        {
          "internalType": "uint256",
          "name": "balance",
          "type": "uint256"
        },
        {
          "internalType": "uint256",
          "name": "needed",
          "type": "uint256"
        }
      ],
      "name": "ERC20InsufficientBalance",
      "type": "error"
    },
    {
      "inputs": [
        {
          "internalType": "address",
          "name": "approver",
          "type": "address"
        }
      ],
      "name": "ERC20InvalidApprover",
      "type": "error"
    },
    {
      "inputs": [
        {
          "internalType": "address",
          "name": "receiver",
          "type": "address"
        }
      ],
      "name": "ERC20InvalidReceiver",
      "type": "error"
    },
    {
      "inputs": [
        {
          "internalType": "address",
          "name": "sender",
          "type": "address"
        }
      ],
      "name": "ERC20InvalidSender",
      "type": "error"
    },
    {
      "inputs": [
        {
          "internalType": "address",
          "name": "spender",
          "type": "address"
        }
      ],
      "name": "ERC20InvalidSpender",
      "type": "error"
    },
    {
      "anonymous": false,
      "inputs": [
        {
          "indexed": true,
          "internalType": "address",
          "name": "owner",
          "type": "address"
        },
        {
          "indexed": true,
          "internalType": "address",
          "name": "spender",
          "type": "address"
        },
        {
          "indexed": false,
          "internalType": "uint256",
          "name": "value",
          "type": "uint256"
        }
      ],
      "name": "Approval",
      "type": "event"
    },
    {
      "anonymous": false,
      "inputs": [
        {
          "indexed": true,
          "internalType": "address",
          "name": "from",
          "type": "address"
        },
        {
          "indexed": true,
          "internalType": "address",
          "name": "to",
          "type": "address"
        },
        {
          "indexed": false,
          "internalType": "uint256",
          "name": "value",
          "type": "uint256"
        }
      ],
      "name": "Transfer",
      "type": "event"
    },
    {
      "inputs": [],
      "name": "admin",
      "outputs": [
        {
          "internalType": "address",
          "name": "",
          "type": "address"
        }
      ],
      "stateMutability": "view",
      "type": "function"
    },
    {
      "inputs": [
        {
          "internalType": "address",
          "name": "owner",
          "type": "address"
        },
        {
          "internalType": "address",
          "name": "spender",
          "type": "address"
        }
      ],
      "name": "allowance",
      "outputs": [
        {
          "internalType": "uint256",
          "name": "",
          "type": "uint256"
        }
      ],
      "stateMutability": "view",
      "type": "function"
    },
    {
      "inputs": [
        {
          "internalType": "address",
          "name": "spender",
          "type": "address"
        },
        {
          "internalType": "uint256",
          "name": "value",
          "type": "uint256"
        }
      ],
      "name": "approve",
      "outputs": [
        {
          "internalType": "bool",
          "name": "",
          "type": "bool"
        }
      ],
      "stateMutability": "nonpayable",
      "type": "function"
    },
    {
      "inputs": [
        {
          "internalType": "address",
          "name": "account",
          "type": "address"
        }
      ],
      "name": "balanceOf",
      "outputs": [
        {
          "internalType": "uint256",
          "name": "",
          "type": "uint256"
        }
      ],
      "stateMutability": "view",
      "type": "function"
    },
    {
      "inputs": [
        {
          "internalType": "address",
          "name": "from",
          "type": "address"
        },
        {
          "internalType": "uint256",
          "name": "amount",
          "type": "uint256"
        }
      ],
      "name": "burn",
      "outputs": [],
      "stateMutability": "nonpayable",
      "type": "function"
    },
    {
      "inputs": [],
      "name": "decimals",
      "outputs": [
        {
          "internalType": "uint8",
          "name": "",
          "type": "uint8"
        }
      ],
      "stateMutability": "view",
      "type": "function"
    },
    {
      "inputs": [
        {
          "internalType": "address",
          "name": "to",
          "type": "address"
        },
        {
          "internalType": "uint256",
          "name": "amount",
          "type": "uint256"
        }
      ],
      "name": "mint",
      "outputs": [],
      "stateMutability": "nonpayable",
      "type": "function"
    },
    {
      "inputs": [],
      "name": "name",
      "outputs": [
        {
          "internalType": "string",
          "name": "",
          "type": "string"
        }
      ],
      "stateMutability": "view",
      "type": "function"
    },
    {
      "inputs": [],
      "name": "symbol",
      "outputs": [
        {
          "internalType": "string",
          "name": "",
          "type": "string"
        }
      ],
      "stateMutability": "view",
      "type": "function"
    },
    {
      "inputs": [],
      "name": "totalSupply",
      "outputs": [
        {
          "internalType": "uint256",
          "name": "",
          "type": "uint256"
        }
      ],
      "stateMutability": "view",
      "type": "function"
    },
    {
      "inputs": [
        {
          "internalType": "address",
          "name": "to",
          "type": "address"
        },
        {
          "internalType": "uint256",
          "name": "value",
          "type": "uint256"
        }
      ],
      "name": "transfer",
      "outputs": [
        {
          "internalType": "bool",
          "name": "",
          "type": "bool"
        }
      ],
      "stateMutability": "nonpayable",
      "type": "function"
    },
    {
      "inputs": [
        {
          "internalType": "address",
          "name": "from",
          "type": "address"
        },
        {
          "internalType": "address",
          "name": "to",
          "type": "address"
        },
        {
          "internalType": "uint256",
          "name": "value",
          "type": "uint256"
        }
      ],
      "name": "transferFrom",
      "outputs": [
        {
          "internalType": "bool",
          "name": "",
          "type": "bool"
        }
      ],
      "stateMutability": "nonpayable",
      "type": "function"
    }
  ],
  "bytecode": "0x60806040523480156200001157600080fd5b506040518060400160405280600881526020017f55534420436f696e0000000000000000000000000000000000000000000000008152506040518060400160405280600481526020017f555344430000000000000000000000000000000000000000000000000000000081525081600390816200008f91906200068f565b508060049081620000a191906200068f565b50505033600560006101000a81548173ffffffffffffffffffffffffffffffffffffffff021916908373ffffffffffffffffffffffffffffffffffffffff16021790555062000149600560009054906101000a900473ffffffffffffffffffffffffffffffffffffffff166200011c6200014f60201b60201c565b60ff16600a6200012d9190620008f9565b620f42406200013d91906200094a565b6200015860201b60201c565b62000a9d565b60006012905090565b600073ffffffffffffffffffffffffffffffffffffffff168273ffffffffffffffffffffffffffffffffffffffff1603620001cd5760006040517fec442f05000000000000000000000000000000000000000000000000000000008152600401620001c49190620009da565b60405180910390fd5b620001e160008383620001e560201b60201c565b5050565b600073ffffffffffffffffffffffffffffffffffffffff168373ffffffffffffffffffffffffffffffffffffffff16036200023b5780600260008282546200022e9190620009f7565b9250508190555062000311565b60008060008573ffffffffffffffffffffffffffffffffffffffff1673ffffffffffffffffffffffffffffffffffffffff16815260200190815260200160002054905081811015620002ca578381836040517fe450d38c000000000000000000000000000000000000000000000000000000008152600401620002c19392919062000a43565b60405180910390fd5b8181036000808673ffffffffffffffffffffffffffffffffffffffff1673ffffffffffffffffffffffffffffffffffffffff16815260200190815260200160002081905550505b600073ffffffffffffffffffffffffffffffffffffffff168273ffffffffffffffffffffffffffffffffffffffff16036200035c5780600260008282540392505081905550620003a9565b806000808473ffffffffffffffffffffffffffffffffffffffff1673ffffffffffffffffffffffffffffffffffffffff168152602001908152602001600020600082825401925050819055505b8173ffffffffffffffffffffffffffffffffffffffff168373ffffffffffffffffffffffffffffffffffffffff167fddf252ad1be2c89b69c2b068fc378daa952ba7f163c4a11628f55a4df523b3ef8360405162000408919062000a80565b60405180910390a3505050565b600081519050919050565b7f4e487b7100000000000000000000000000000000000000000000000000000000600052604160045260246000fd5b7f4e487b7100000000000000000000000000000000000000000000000000000000600052602260045260246000fd5b600060028204905060018216806200049757607f821691505b602082108103620004ad57620004ac6200044f565b5b50919050565b60008190508160005260206000209050919050565b60006020601f8301049050919050565b600082821b905092915050565b600060088302620005177fffffffffffffffffffffffffffffffffffffffffffffffffffffffffffffffff82620004d8565b620005238683620004d8565b95508019841693508086168417925050509392505050565b6000819050919050565b6000819050919050565b6000620005706200056a62000564846200053b565b62000545565b6200053b565b9050919050565b6000819050919050565b6200058c836200054f565b620005a46200059b8262000577565b848454620004e5565b825550505050565b600090565b620005bb620005ac565b620005c881848462000581565b505050565b5b81811015620005f057620005e4600082620005b1565b600181019050620005ce565b5050565b601f8211156200063f576200060981620004b3565b6200061484620004c8565b8101602085101562000624578190505b6200063c6200063385620004c8565b830182620005cd565b50505b505050565b600082821c905092915050565b6000620006646000198460080262000644565b1980831691505092915050565b60006200067f838362000651565b9150826002028217905092915050565b6200069a8262000415565b67ffffffffffffffff811115620006b657620006b562000420565b5b620006c282546200047e565b620006cf828285620005f4565b600060209050601f831160018114620007075760008415620006f2578287015190505b620006fe858262000671565b8655506200076e565b601f1984166200071786620004b3565b60005b8281101562000741578489015182556001820191506020850194506020810190506200071a565b868310156200076157848901516200075d601f89168262000651565b8355505b6001600288020188555050505b505050505050565b7f4e487b7100000000000000000000000000000000000000000000000000000000600052601160045260246000fd5b60008160011c9050919050565b6000808291508390505b60018511156200080457808604811115620007dc57620007db62000776565b5b6001851615620007ec5780820291505b8081029050620007fc85620007a5565b9450620007bc565b94509492505050565b6000826200081f5760019050620008f2565b816200082f5760009050620008f2565b8160018114620008485760028114620008535762000889565b6001915050620008f2565b60ff84111562000868576200086762000776565b5b8360020a91508482111562000882576200088162000776565b5b50620008f2565b5060208310610133831016604e8410600b8410161715620008c35782820a905083811115620008bd57620008bc62000776565b5b620008f2565b620008d28484846001620007b2565b92509050818404811115620008ec57620008eb62000776565b5b81810290505b9392505050565b600062000906826200053b565b915062000913836200053b565b9250620009427fffffffffffffffffffffffffffffffffffffffffffffffffffffffffffffffff84846200080d565b905092915050565b600062000957826200053b565b915062000964836200053b565b925082820262000974816200053b565b915082820484148315176200098e576200098d62000776565b5b5092915050565b600073ffffffffffffffffffffffffffffffffffffffff82169050919050565b6000620009c28262000995565b9050919050565b620009d481620009b5565b82525050565b6000602082019050620009f16000830184620009c9565b92915050565b600062000a04826200053b565b915062000a11836200053b565b925082820190508082111562000a2c5762000a2b62000776565b5b92915050565b62000a3d816200053b565b82525050565b600060608201905062000a5a6000830186620009c9565b62000a69602083018562000a32565b62000a78604083018462000a32565b949350505050565b600060208201905062000a97600083018462000a32565b92915050565b61120b8062000aad6000396000f3fe608060405234801561001057600080fd5b50600436106100b45760003560e01c806370a082311161007157806370a082311461018f57806395d89b41146101bf5780639dc29fac146101dd578063a9059cbb146101f9578063dd62ed3e14610229578063f851a44014610259576100b4565b806306fdde03146100b9578063095ea7b3146100d757806318160ddd1461010757806323b872dd14610125578063313ce5671461015557806340c10f1914610173575b600080fd5b6100c1610277565b6040516100ce9190610d87565b60405180910390f35b6100f160048036038101906100ec9190610e42565b610309565b6040516100fe9190610e9d565b60405180910390f35b61010f61032c565b60405161011c9190610ec7565b60405180910390f35b61013f600480360381019061013a9190610ee2565b610336565b60405161014c9190610e9d565b60405180910390f35b61015d610365565b60405161016a9190610f51565b60405180910390f35b61018d60048036038101906101889190610e42565b61036e565b005b6101a960048036038101906101a49190610f6c565b61040c565b6040516101b69190610ec7565b60405180910390f35b6101c7610454565b6040516101d49190610d87565b60405180910390f35b6101f760048036038101906101f29190610e42565b6104e6565b005b610213600480360381019061020e9190610e42565b610584565b6040516102209190610e9d565b60405180910390f35b610243600480360381019061023e9190610f99565b6105a7565b6040516102509190610ec7565b60405180910390f35b61026161062e565b60405161026e9190610fe8565b60405180910390f35b60606003805461028690611032565b80601f01602080910402602001604051908101604052809291908181526020018280546102b290611032565b80156102ff5780601f106102d4576101008083540402835291602001916102ff565b820191906000526020600020905b8154815290600101906020018083116102e257829003601f168201915b5050505050905090565b600080610314610654565b905061032181858561065c565b600191505092915050565b6000600254905090565b600080610341610654565b905061034e85828561066e565b610359858585610703565b60019150509392505050565b60006012905090565b600560009054906101000a900473ffffffffffffffffffffffffffffffffffffffff1673ffffffffffffffffffffffffffffffffffffffff163373ffffffffffffffffffffffffffffffffffffffff16146103fe576040517f08c379a00000000000000000000000000000000000000000000000000000000081526004016103f5906110af565b60405180910390fd5b61040882826107f7565b5050565b60008060008373ffffffffffffffffffffffffffffffffffffffff1673ffffffffffffffffffffffffffffffffffffffff168152602001908152602001600020549050919050565b60606004805461046390611032565b80601f016020809104026020016040519081016040528092919081815260200182805461048f90611032565b80156104dc5780601f106104b1576101008083540402835291602001916104dc565b820191906000526020600020905b8154815290600101906020018083116104bf57829003601f168201915b5050505050905090565b600560009054906101000a900473ffffffffffffffffffffffffffffffffffffffff1673ffffffffffffffffffffffffffffffffffffffff163373ffffffffffffffffffffffffffffffffffffffff1614610576576040517f08c379a000000000000000000000000000000000000000000000000000000000815260040161056d9061111b565b60405180910390fd5b6105808282610879565b5050565b60008061058f610654565b905061059c818585610703565b600191505092915050565b6000600160008473ffffffffffffffffffffffffffffffffffffffff1673ffffffffffffffffffffffffffffffffffffffff16815260200190815260200160002060008373ffffffffffffffffffffffffffffffffffffffff1673ffffffffffffffffffffffffffffffffffffffff16815260200190815260200160002054905092915050565b600560009054906101000a900473ffffffffffffffffffffffffffffffffffffffff1681565b600033905090565b61066983838360016108fb565b505050565b600061067a84846105a7565b90507fffffffffffffffffffffffffffffffffffffffffffffffffffffffffffffffff8110156106fd57818110156106ed578281836040517ffb8f41b20000000000000000000000000000000000000000000000000000000081526004016106e49392919061113b565b60405180910390fd5b6106fc848484840360006108fb565b5b50505050565b600073ffffffffffffffffffffffffffffffffffffffff168373ffffffffffffffffffffffffffffffffffffffff16036107755760006040517f96c6fd1e00000000000000000000000000000000000000000000000000000000815260040161076c9190610fe8565b60405180910390fd5b600073ffffffffffffffffffffffffffffffffffffffff168273ffffffffffffffffffffffffffffffffffffffff16036107e75760006040517fec442f050000000000000000000000000000000000000000000000000000000081526004016107de9190610fe8565b60405180910390fd5b6107f2838383610ad2565b505050565b600073ffffffffffffffffffffffffffffffffffffffff168273ffffffffffffffffffffffffffffffffffffffff16036108695760006040517fec442f050000000000000000000000000000000000000000000000000000000081526004016108609190610fe8565b60405180910390fd5b61087560008383610ad2565b5050565b600073ffffffffffffffffffffffffffffffffffffffff168273ffffffffffffffffffffffffffffffffffffffff16036108eb5760006040517f96c6fd1e0000000000000000000000000000000000000000000000000000000081526004016108e29190610fe8565b60405180910390fd5b6108f782600083610ad2565b5050565b600073ffffffffffffffffffffffffffffffffffffffff168473ffffffffffffffffffffffffffffffffffffffff160361096d5760006040517fe602df050000000000000000000000000000000000000000000000000000000081526004016109649190610fe8565b60405180910390fd5b600073ffffffffffffffffffffffffffffffffffffffff168373ffffffffffffffffffffffffffffffffffffffff16036109df5760006040517f94280d620000000000000000000000000000000000000000000000000000000081526004016109d69190610fe8565b60405180910390fd5b81600160008673ffffffffffffffffffffffffffffffffffffffff1673ffffffffffffffffffffffffffffffffffffffff16815260200190815260200160002060008573ffffffffffffffffffffffffffffffffffffffff1673ffffffffffffffffffffffffffffffffffffffff168152602001908152602001600020819055508015610acc578273ffffffffffffffffffffffffffffffffffffffff168473ffffffffffffffffffffffffffffffffffffffff167f8c5be1e5ebec7d5bd14f71427d1e84f3dd0314c0f7b2291e5b200ac8c7c3b92584604051610ac39190610ec7565b60405180910390a35b50505050565b600073ffffffffffffffffffffffffffffffffffffffff168373ffffffffffffffffffffffffffffffffffffffff1603610b24578060026000828254610b1891906111a1565b92505081905550610bf7565b60008060008573ffffffffffffffffffffffffffffffffffffffff1673ffffffffffffffffffffffffffffffffffffffff16815260200190815260200160002054905081811015610bb0578381836040517fe450d38c000000000000000000000000000000000000000000000000000000008152600401610ba79392919061113b565b60405180910390fd5b8181036000808673ffffffffffffffffffffffffffffffffffffffff1673ffffffffffffffffffffffffffffffffffffffff16815260200190815260200160002081905550505b600073ffffffffffffffffffffffffffffffffffffffff168273ffffffffffffffffffffffffffffffffffffffff1603610c405780600260008282540392505081905550610c8d565b806000808473ffffffffffffffffffffffffffffffffffffffff1673ffffffffffffffffffffffffffffffffffffffff168152602001908152602001600020600082825401925050819055505b8173ffffffffffffffffffffffffffffffffffffffff168373ffffffffffffffffffffffffffffffffffffffff167fddf252ad1be2c89b69c2b068fc378daa952ba7f163c4a11628f55a4df523b3ef83604051610cea9190610ec7565b60405180910390a3505050565b600081519050919050565b600082825260208201905092915050565b60005b83811015610d31578082015181840152602081019050610d16565b60008484015250505050565b6000601f19601f8301169050919050565b6000610d5982610cf7565b610d638185610d02565b9350610d73818560208601610d13565b610d7c81610d3d565b840191505092915050565b60006020820190508181036000830152610da18184610d4e565b905092915050565b600080fd5b600073ffffffffffffffffffffffffffffffffffffffff82169050919050565b6000610dd982610dae565b9050919050565b610de981610dce565b8114610df457600080fd5b50565b600081359050610e0681610de0565b92915050565b6000819050919050565b610e1f81610e0c565b8114610e2a57600080fd5b50565b600081359050610e3c81610e16565b92915050565b60008060408385031215610e5957610e58610da9565b5b6000610e6785828601610df7565b9250506020610e7885828601610e2d565b9150509250929050565b60008115159050919050565b610e9781610e82565b82525050565b6000602082019050610eb26000830184610e8e565b92915050565b610ec181610e0c565b82525050565b6000602082019050610edc6000830184610eb8565b92915050565b600080600060608486031215610efb57610efa610da9565b5b6000610f0986828701610df7565b9350506020610f1a86828701610df7565b9250506040610f2b86828701610e2d565b9150509250925092565b600060ff82169050919050565b610f4b81610f35565b82525050565b6000602082019050610f666000830184610f42565b92915050565b600060208284031215610f8257610f81610da9565b5b6000610f9084828501610df7565b91505092915050565b60008060408385031215610fb057610faf610da9565b5b6000610fbe85828601610df7565b9250506020610fcf85828601610df7565b9150509250929050565b610fe281610dce565b82525050565b6000602082019050610ffd6000830184610fd9565b92915050565b7f4e487b7100000000000000000000000000000000000000000000000000000000600052602260045260246000fd5b6000600282049050600182168061104a57607f821691505b60208210810361105d5761105c611003565b5b50919050565b7f4f6e6c792061646d696e2063616e206d696e7400000000000000000000000000600082015250565b6000611099601383610d02565b91506110a482611063565b602082019050919050565b600060208201905081810360008301526110c88161108c565b9050919050565b7f4f6e6c792061646d696e2063616e206275726e00000000000000000000000000600082015250565b6000611105601383610d02565b9150611110826110cf565b602082019050919050565b60006020820190508181036000830152611134816110f8565b9050919050565b60006060820190506111506000830186610fd9565b61115d6020830185610eb8565b61116a6040830184610eb8565b949350505050565b7f4e487b7100000000000000000000000000000000000000000000000000000000600052601160045260246000fd5b60006111ac82610e0c565b91506111b783610e0c565b92508282019050808211156111cf576111ce611172565b5b9291505056fea26469706673582212204888317c548b03e71e0b22c7db53b409f40705cc2a0ec083521c1bbf10b83e9f64736f6c63430008140033",
  "linkReferences": {},
  "deployedLinkReferences": {}
}